:107800000C943E3C0C945B3C0C945B3C0C945B3CB9
:107810000C945B3C0C945B3C0C945B3C0C945B3C8C
:107820000C945B3C0C945B3C0C945B3C0C945B3C7C
:107830000C945B3C0C945B3C0C945B3C0C945B3C6C
:107840000C945B3C0C945B3C0C945B3C0C945B3C5C
:107850000C945B3C0C945B3C0C945B3C0C945B3C4C
:107860000C945B3C0C945B3C0C945B3C0C945B3C3C
:107870000C945B3C0C945B3C0C945B3C11241FBE51
:10788000CFEFD8E0DEBFCDBF11E0A0E0B1E0E6E68B
:10789000FFE702C005900D92A030B107D9F712E0C2
:1078A000A0E0B1E001C01D92A930B107E1F70E944C
:1078B000533D0C94B23F0C94003CCF93DF93CDB773
:1078C000DEB724970FB6F894DEBF0FBECDBF882376
:1078D00009F484E020E0482F55274115510509F4AB
:1078E0003DC0289A19821A821B821C820BC0898192
:1078F0009A81AB81BC810196A11DB11D89839A83B8
:10790000AB83BC8389819A81AB81BC8180529E44C8
:10791000A040B04060F3289819821A821B821C8212
:107920000BC089819A81AB81BC810196A11DB11DDB
:1079300089839A83AB83BC8389819A81AB81BC8123
:1079400080589843A140B04060F32F5F822F992761
:1079500087FD9095841795070CF4C3CF19821A827E
:107960001B821C8289819A81AB81BC8180549D409D
:10797000A340B040A0F489819A81AB81BC8101967B
:10798000A11DB11D89839A83AB83BC8389819A81B0
:10799000AB81BC8180549D40A340B04060F32496ED
:1079A0000FB6F894DEBF0FBECDBFDF91CF91089523
:1079B000EF92FF920F931F93EE24FF2487012898E4
:1079C0008091C00087FD17C00894E11CF11C011DC7
:1079D000111D81E0E81689E0F8068DE3080780E0D4
:1079E000180770F3E0910001F09101010995809171
:1079F000C00087FFE9CF289A8091C600992787FDAC
:107A000090951F910F91FF90EF900895982F80917E
:107A1000C00085FFFCCF9093C60008950E94D83C1B
:107A2000803271F0809102018F5F80930201853076
:107A300009F00895E0910001F09101010995089580
:107A400084E10E94063D80E10E94063D0895CF93A7
:107A5000C82F0E94D83C803241F0809102018F5F94
:107A600080930201853081F40AC084E10E94063DC2
:107A70008C2F0E94063D80E10E94063D05C0E091EA
:107A80000001F09101010995CF910895282F90E010
:107A900007C08091C0008823E4F78091C6009F5FF3
:107AA0009217B8F30895CFEFD8E0DEBFCDBF000046
:107AB00094B714BE8091600088618093600010923A
:107AC000600091FF74C180E48093C4001092C500EF
:107AD00088E18093C10086E08093C2005098589A54
:107AE000209A84E00E945D3C81E00E945D3C0E94FF
:107AF000D83C8033B9F18133C1F1803409F456C0E8
:107B0000813409F45CC0823409F46EC0853409F410
:107B100071C0803539F1813509F4F3C0823511F136
:107B2000853509F4D3C0863509F4CBC0843609F411
:107B300065C0843709F4EBC0853709F4D2C08637B5
:107B400009F44AC0809102018F5F80930201853061
:107B500071F6E0910001F091010109950E94D83C75
:107B6000803349F60E940E3DC2CF0E94D83CC82FF8
:107B7000803241F784E10E94063D81E40E94063D87
:107B800086E50E94063D82E50E94063D8C2F0E94FC
:107B9000063D89E40E94063D83E50E94063D80E59E
:107BA0000E94063D80E10E94063DA1CF0E94D83C84
:107BB0008638C0F20E94D83C0E940E3D98CF0E94A9
:107BC000D83C803809F407C1813809F400C18238F3
:107BD00009F4F9C0883921F080E00E94273D87CF61
:107BE00083E00E94273D83CF84E10E94463D0E94AE
:107BF0000E3D7DCF85E00E94463DF9CF0E94D83CE6
:107C0000809306020E94D83C80930502809108026E
:107C10008E7F809308020E94D83C853409F44BC0C3
:107C2000E5E0F1E0119281E0E434F807D9F3D0F314
:107C3000C0E0D0E080910502909106021816190666
:107C400078F405E011E00E94D83CF80181938F019F
:107C500021968091050290910602C817D90798F3E2
:107C60000E94D83C803209F06DCF8091080280FFDD
:107C7000B6C0C0E0D0E02091050230910602121695
:107C80001306B8F4E0910301F0910401A5E0B1E01E
:107C9000F999FECFF2BDE1BD8D9180BDFA9AF99AB6
:107CA00031962196C217D30798F3F0930401E0931D
:107CB000030184E175CF80910802816080930802FE
:107CC000AFCF84E00E94463D80E087CF0E94D83C41
:107CD000809303010E94D83C809304010E940E3DD2
:107CE00006CF0E94D83C803209F02CCF84E10E945C
:107CF000063D8EE10E94063D85E90E94063D88E032
:107D00004FCF0E940E3D88E080936000FFCF0E941D
:107D1000D83C809306020E94D83C809305020E94C2
:107D2000D83C853409F449C0809108028E7F809345
:107D300008028091030190910401880F991F90938C
:107D40000401809303010E94D83C803209F0CFCE19
:107D500084E10E94063DC0E0D0E020910502309110
:107D600006021216130608F01DCFE0910301F091F0
:107D700004018091080280FF96C0F999FECFF2BD00
:107D8000E1BDF89A80B50E94063DE0910301F091B3
:107D900004013196F0930401E09303012091050260
:107DA000309106022196C217D30718F3FBCEE0915B
:107DB0000001F0910101099586CE80910802816051
:107DC00080930802C0CF80E10E94273D90CE81E0E1
:107DD0000E94273D8CCE82E00E94273D88CE809174
:107DE000030190910401880F991F909304018093DF
:107DF00003018091050280FF09C0809105029091E6
:107E0000060201969093060280930502F999FECF2F
:107E10001127E0910301F0910401C5E0D1E08091C8
:107E2000050290910602103091F400915700017004
:107E30000130D9F303E000935700E8950091570013
:107E400001700130D9F301E100935700E8950990E2
:107E500019900091570001700130D9F301E00093AF
:107E60005700E8951395103498F0112700915700AA
:107E700001700130D9F305E000935700E8950091B7
:107E8000570001700130D9F301E100935700E895E4
:107E90003296029709F0C7CF103011F00296E5CF65
:107EA000112484E17DCE869580FF06C03196F09343
:107EB0000401E093030176CF84910E94063D209156
:107EC000050230910602E0910301F0910401EECF2A
:107ED0001F93CF930E94D83CC82F0E94063D0E945A
:107EE000D83C182F0E94063DC1362CF0C7551136DC
:107EF0003CF0175508C0C033D4F3C0531136CCF74B
:107F000010330CF01053C295C07FC10F8C2F9927EE
:107F100087FD9095CF911F910895CF93282F992792
:107F200087FD9095807F907095958795959587951D
:107F300095958795959587958A303CF0895AC22FFB
:107F4000CF70CA303CF0C95A06C0805DC22FCF70D6
:107F5000CA30CCF7C05D0E94063D8C2F0E94063DC2
:067F6000CF910895FFCF50
:040000030000780081
:00000001FF
